:100000000C9434000C9451000C9451000C94510049
:100010000C9451000C9451000C9451000C9451001C
:100020000C9451000C9451000C9451000C9451000C
:100030000C9451000C9451000C9451000C945100FC
:100040000C9451000C9451000C9451000C945100EC
:100050000C9451000C9451000C9451000C945100DC
:100060000C9451000C94510011241FBECFEFD8E026
:10007000DEBFCDBF11E0A0E0B1E0ECE9F5E002C0E9
:1000800005900D92A235B107D9F721E0A2E5B1E0C4
:1000900001C01D92A436B207E1F70E94B4000C948F
:1000A000CC020C94000080FF0BC02E9A81FF0AC086
:1000B0005C9A82FF09C02C9A83FF08C02D9A08958C
:1000C0002E98F4CF5C98F5CF2C98F6CF2D98089504
:1000D000259A249A549A269A0895CF93C82F0E945D
:1000E00068005F9A8C2F82958F700E9453005F98F2
:1000F0005F9A8C2F0E9453005F9888E28A95F1F7EF
:10010000CF910895CF93DF93EC018991811103C0C2
:10011000DF91CF9108955A9A0E946D00F6CFCF9348
:10012000DF93CDB7DEB761970FB6F894DEBF0FBE91
:10013000CDBF4AE0BE016F5F7F4F0E9497020E94D1
:10014000820061960FB6F894DEBF0FBECDBFDF917F
:10015000CF9108955A980C946D00813009F480E491
:100160006058860F0C94AA00CF93DF93CDB7DEB70B
:10017000EC970FB6F894DEBF0FBECDBF8BB1836096
:100180008BB984B18E6084B98AB188668AB916BC8D
:1001900084B5806884BD84B5806284BD84B5836085
:1001A00084BD85B5856085BD2DE727BD98EC98BDDC
:1001B0001092850010928400809180008068809366
:1001C0008000809180008062809380008091800018
:1001D000826080938000809181008861809381009B
:1001E0008091810083608093810043EC59E05093BB
:1001F0008700409386004DE750E05093890040937C
:1002000088004FEF50E050938B0040938A0010928B
:10021000B2008091B00080688093B0008091B000FF
:1002200080628093B0008091B00083608093B000C2
:100230008091B10086608093B1002093B3009093C9
:10024000B4000E946800529A579A5A985F9885EABB
:100250009EE00197F1F700C000005A985B9880E398
:100260000E94530080E094E00197F1F700C0000085
:1002700080E30E94530091E29A95F1F7000080E23A
:100280000E94530081E28A95F1F7000088E20E9403
:10029000AA0088E00E94AA008CE00E94AA0086E0E2
:1002A0000E94AA0081E00E94AA0088EC94E00197D5
:1002B000F1F700C000002AE0E0E0F1E0CE01019695
:1002C000DC0101900D922A95E1F72AE0EAE0F1E0E5
:1002D000DE011B9601900D922A95E1F72AE0E4E1F8
:1002E000F1E0DE01559601900D922A95E1F72AE0A2
:1002F000EEE1F1E0DE015F9601900D922A95E1F7C3
:100300002AE0E8E2F1E0DE01999601900D922A954B
:10031000E1F72AE0E2E3F1E0DE01D39601900D92ED
:100320002A95E1F790935901809358010A9690938A
:100330005B0180935A010A9690935D0180935C0162
:100340000A9690935F0180935E010A9690936101F3
:10035000809360010A969093630180936201789480
:1003600081E00E94AA0088EC94E00197F1F700C0B8
:100370000000E0915801F0915901668184810E944A
:10038000AD00E0915801F0915901808191810E9466
:100390008200E0915801F09159018085882309F489
:1003A000A8C0828193810E948F00E0915801F09152
:1003B00059018185882321F08EE391E00E9482001B
:1003C000E0915A01F0915B01668184810E94AD0049
:1003D000E0915A01F0915B01808191810E9482003D
:1003E000E0915A01F0915B018085882309F486C071
:1003F000828193810E948F00E0915C01F0915D0108
:10040000668184810E94AD00E0915C01F0915D0104
:10041000808191810E948200E0915C01F0915D01F8
:100420008085882309F46FC0828193810E948F00A8
:10043000E0915E01F0915F01668184810E94AD00D0
:10044000E0915E01F0915F01808191810E948200C4
:10045000E0915E01F0915F018085882309F458C026
:10046000828193810E948F00E0916001F09161018F
:10047000668184810E94AD00E0916001F09161018C
:10048000808191810E948200E0916001F091610180
:100490008085882309F441C0828193810E948F0066
:1004A000E0916201F0916301668184810E94AD0058
:1004B000E0916201F0916301808191810E9482004C
:1004C000E0916201F09163018085882359F1828176
:1004D00093810E948F00E0915801F091590181E0D1
:1004E0008087818783ED90E30197F1F700C00000DA
:1004F00037CF8CE391E00E94820057CF8CE391E0EC
:100500000E94820079CF8CE391E00E94820090CF1C
:100510008CE391E00E948200A7CF8CE391E00E94DF
:100520008200BECF8CE391E00E948200D4CFBB2733
:100530004A3031F4992322F4BDE2909581959F4F82
:100540000C94A302BB27FB015527AA27880F991FEC
:10055000AA1FA41710F0A41B83955051B9F7A05DF2
:10056000AA3308F0A95DA193009779F7B111B1936F
:100570001192CB010C94BC02DC01FC01672F71913C
:100580007723E1F7329704C07C916D937083629179
:0C059000AE17BF07C8F30895F894FFCF22
:10059C0040010B00000000000000430100000100BE
:1005AC0000000000460100000000050000004901A9
:1005BC0000000100050000004C01000000000A00D2
:1005CC0000004F01000001000A0000002D003D005A
:1005DC00313A00323A00333A00343A00353A0036B8
:0205EC003A00D3
:00000001FF
